:1000000002C100000C948F080C9464080C94390809
:100010000C940E08D8C70000ABC700007EC70000D4
:1000200051C7000021C100001FC100001DC1000018
:100030001BC1000019C1000017C1000015C100005C
:1000400013C1000011C100000FC100000DC100006C
:100050000BC1000009C1000007C10000E9C6000093
:1000600003C10000AFC6000084C60000FDC0000050
:10007000FBC00000F9C00000F7C00000F5C00000A0
:10008000F3C00000F1C00000EFC00000EDC00000B0
:100090003AC600000FC60000E7C000000C94BA0882
:1000A000E3C00000E1C00000DFC00000DDC00000D0
:1000B000DBC00000D9C00000D7C00000D5C00000E0
:1000C000D3C00000D1C00000CFC00000CDC00000F0
:1000D000CBC00000C9C00000C7C00000C5C0000000
:1000E000C3C0000000002100240027002A002D00CA
:1000F0003000330001010000040107010A01000083
:100100002200250028002B002E00310034000201BF
:100110000000050108010B0100002000230026005B
:1001200029002C002F00320000010000030106010D
:10013000090105050505070508080808020202026D
:100140000A0A080804040404010101010101010173
:100150000303030303030303040707070C0C0C0C3E
:100160000C0C0C0C02020202060606060606060627
:100170000B0B0B0B0B0B0B0B0102102020080810B4
:100180002040102040800201020108040201010207
:1001900004081020408080402010080402018004E0
:1001A000020180402010080402010804020101023B
:1001B0000408102040800102040810204080000044
:1001C0000A0B02090C0D0E080703040100000000D1
:1001D000000000000000000000000000000000001F
:1001E00000000000000000000000121110000000DC
:1001F00000000000000000000000000000000000FF
:1002000000000000EA0911241FBECFEFD1E2DEBFDB
:10021000CDBF00E00CBF13E0A0E0B2E0E4E5F2E205
:1002200000E00BBF02C007900D92A033B107D9F7D1
:1002300025E0A0E3B3E001C01D92A335B207E1F7CA
:1002400011E0C3E0D1E000E006C021970109802F52
:10025000FE010E942011C230D10780E00807A9F7F3
:100260000E94600A0C942811CBCEFC01A089B189B0
:1002700082E08C93A485B5851C92A685B7858FEC0A
:100280008C93108EA489B58986E08C93A289B3895A
:100290008C9180618C93A289B3898C9188608C93B6
:1002A000A289B3898C9180688C930288F389E02DB0
:1002B00080818F7D808308952FB7F8944091E50366
:1002C0005091E6036091E7037091E8032FBFFC01B2
:1002D00040835183628373830895AF92BF92CF921C
:1002E000DF92EF92FF920F931F93CF93DF936C01F6
:1002F0007B018B01040F151FEB015E01AE18BF08D7
:10030000C017D10759F06991D601ED91FC91019088
:10031000F081E02DC6011995892B79F7C501DF9190
:10032000CF911F910F91FF90EF90DF90CF90BF90F2
:10033000AF900895FC01538D448D252F30E0842F1C
:1003400090E0821B930B541710F0CF9608950197FD
:100350000895FC01918D828D981761F0A28DAE0FEA
:10036000BF2FB11D5D968C91928D9F5F9F73928F71
:1003700090E008958FEF9FEF0895FC01918D828D9D
:10038000981731F0828DE80FF11D858D90E008956A
:100390008FEF9FEF0895FC01918D228D892F90E0C2
:1003A000805C9F4F821B91098F739927089589EE76
:1003B00093E0F1DF21E0892B09F420E0822F0895FA
:1003C00086E894E0E8DF21E0892B09F420E0822F21
:1003D0000895FC01A48DA80FB92FB11DA35ABF4FDA
:1003E0002C91848D90E001968F739927848FA68934
:1003F000B7892C93A089B1898C91837080648C9388
:10040000938D848D981306C00288F389E02D808136
:100410008F7D80830895EF92FF920F931F93CF9368
:10042000DF93EC0181E0888F9B8D8C8D98131AC02F
:10043000E889F989808185FF15C09FB7F894EE8916
:10044000FF896083E889F989808183708064808373
:100450009FBF81E090E0DF91CF911F910F91FF90BE
:10046000EF900895F62E0B8D10E00F5F1F4F0F7366
:100470001127E02E8C8D8E110BC00FB607FCFACF22
:10048000E889F989808185FFF5CFCE01A2DFF2CF1F
:10049000EB8DEC0FFD2FF11DE35AFF4FF0829FB75C
:1004A000F8940B8FEA89FB8980818062D0CFCF934B
:1004B000DF93EC01888D8823B1F0AA89BB89E88994
:1004C000F9898C9185FD03C0808186FD0CC00FB633
:1004D00007FCF7CF8C9185FFF2CF808185FFEDCFB0
:1004E000CE0177DFEACFDF91CF91089580E090E0F1
:1004F000892B21F065DF81110E94000080E090E0EF
:10050000892B21F054DF81110E94000080E090E0EF
:10051000892B49F080E090E0892B29F00E940000AF
:1005200081110E94000080E090E0892B49F080E07A
:1005300090E0892B29F00E94000081110C940000AA
:1005400008958150823108F05AC0E82FF0E08827E2
:10055000E355FD4F8F4F0C942011CD02D102BF0205
:10056000C502C902FF02D402DA02DE02E402E80296
:10057000EC02F202F602FF02FA0200030403809189
:1005800080008F77809380000895809180008F7D18
:10059000F9CF80918000877FF5CF84B58F7784BDB8
:1005A000089584B58F7DFBCF8091B0008F778093C5
:1005B000B00008958091B0008F7DF9CF80919000B8
:1005C0008F77809390000895809190008F7DF9CF70
:1005D00080919000877FF5CF8091A0008F778093E6
:1005E000A00008958091A0008F7DF9CF8091A00098
:1005F000877FF5CF809120018F7780932001089528
:10060000809120018F7DF9CF80912001877FF5CFE8
:10061000CF93DF93282F30E0F901E254FE4F84910D
:10062000F901E858FE4FD491F901EE5CFE4FC491F8
:10063000CC2399F0811185DFEC2FF0E0EE0FFF1F46
:10064000E85EFE4FA591B491EC91ED2381E090E03E
:1006500009F480E0DF91CF91089580E090E0FACF37
:100660001F93CF93DF93282F30E0F901E254FE4F20
:100670008491F901E858FE4FD491F901EE5CFE4FE8
:10068000C491CC23A1F0162F81115BDFEC2FF0E099
:10069000EE0FFF1FE250FF4FA591B4918FB7F89472
:1006A000EC91111108C0D095DE23DC938FBFDF9150
:1006B000CF911F910895DE2BF8CFCF93DF9390E079
:1006C000FC01E858FE4F24918E5C9E4FFC01849102
:1006D0008823D1F090E0880F991FFC01EC51FF4F67
:1006E000A591B491FC01E250FF4FC591D4916111E5
:1006F0000EC09FB7F8948C91E22FE0958E238C93D7
:100700002881E223E8839FBFDF91CF9108958FB7BF
:10071000F894EC91E22BEC938FBFF6CF20917B0005
:10072000982F987F277F922B90937B00877080640F
:1007300080937C0080917A00806480937A0080911D
:100740007A0086FDFCCF8091780090917900089521
:100750004F925F926F927F928F929F92AF92BF92D1
:10076000CF92DF92EF92FF920F931F93CF93DF937D
:100770004C015B013A01290189E0D0DF6C0187E07F
:10078000CDDF7C0188E0CADF8C0186E0C7DFEC01A9
:10079000B60190E080E00E94E10F20E030E040EA06
:1007A0005BE30E9497102DEC3CEC4CE45EE30E946E
:1007B000971020E030E040E85FE30E94E50EF4018E
:1007C0006083718382839383B70190E080E00E940D
:1007D000E10F20E030E040EA5BE30E94971020E068
:1007E00030E040EC50E40E94971020E030E040E21E
:1007F00051E40E94E50EF501608371838283938347
:10080000B80190E080E00E94E10F20E030E040EA93
:100810005BE30E9497102AE939E949E15FE30E940E
:10082000971020E030E040E85FE30E94E50EF3011E
:100830006083718382839383BE0190E080E00E9495
:10084000E10F20E030E040EA5BE30E94971020E0F7
:1008500030E040EA51E40E94971020E030E0A90126
:100860000E94E50EF2016083718382839383DF919E
:10087000CF911F910F91FF90EF90DF90CF90BF909D
:10088000AF909F908F907F906F905F904F90089562
:10089000089585ED8093BC008091BC0084FDFCCF61
:1008A00010927503089520915103260F3327331FAB
:1008B00021323105ECF420917503FC0190E080E0D9
:1008C000243069F082E00895A09151032191AC0198
:1008D0004F5C5C4FA40FB52FB11D2C93019686176A
:1008E00098F380915103680F6093510380E008955D
:1008F00081E0089508958FEF9FEF08958FEF9FEFA8
:1009000008958091300390E0919581959109089523
:10091000CF93DF93CB01EA01642FC5DFCE01DF91D6
:10092000CF910895CF93DF931F92CDB7DEB7698340
:1009300061E0CE010196B7DF81E090E00F90DF919A
:10094000CF91089590E080E008958AE0E7DEBC0151
:10095000990F880B990B0E94E30F2AE939E949E1C5
:100960005FE30E94971020E030E0A9010C94E50EAF
:1009700008950F931F93FC012FB7F8946091E5033E
:100980007091E6038091E7039091E8032FBF008107
:10099000118122813381601B710B820B930B1F919C
:1009A0000F9108958FE495E0E4DF0E94E10F20E0CD
:1009B00030E048EC52E40E94931018160CF04DC041
:1009C0008091E403811106C081E08093E4038FE409
:1009D00095E072CC1092E4038091E0039091E103E2
:1009E000A091E203B091E3038093CE039093CF03F1
:1009F000A093D003B093D1038091DC039091DD03E9
:100A0000A091DE03B091DF038093C6039093C703E8
:100A1000A093C803B093C9038091D8039091D903E0
:100A2000A091DA03B091DB038093BE039093BF03E0
:100A3000A093C003B093C1038091D4039091D503D8
:100A4000A091D603B091D7038093B6039093B703D8
:100A5000A093B803B093B903BACF0895FC010190F5
:100A60000020E9F73197AF01481B590BBC0186E81C
:100A700094E033CC8F929F92AF92BF920F931F93CB
:100A8000CF93DF93CDB7DEB7A1970FB6F894DEBF53
:100A90000FBECDBF19A2423008F44AE08E010F5DAF
:100AA0001F4F842E912CB12CA12CA50194010E94E2
:100AB000FE10E62FB901CA01EA30ECF4E05DD8017E
:100AC000EE938D01232B242B252B79F790E080E0EA
:100AD000109711F0CD01C2DFA1960FB6F894DEBFDA
:100AE0000FBECDBFDF91CF911F910F91BF90AF90FF
:100AF0009F908F900895E95CE2CFCF93DF93AEDFB4
:100B0000EC0182E292E0AADF8C0F9D1FDF91CF9172
:100B10000895A4CF4F925F926F927F928F929F928F
:100B2000AF92BF92CF92DF92EF92FF926B017C0166
:100B3000AC019B010E94FA108823B1F085E292E09B
:100B40008DDF7C0182E292E089DF8E0D9F1DFF9098
:100B5000EF90DF90CF90BF90AF909F908F907F905D
:100B60006F905F904F90089546015701E894B7F851
:100B70002FEF3FEF4FE75FE7C501B4010E94FA1086
:100B800081110DC02FEF3FEF4FE75FE7C501B401C3
:100B90000E94490F18161CF489E292E0D1CF2FEF82
:100BA0003FEF4FE75FE4C701B6010E9493101816AC
:100BB0001CF48DE292E0C4CF2FEF3FEF4FE75FECE4
:100BC000C701B6010E94490F87FDF3CF20E030E056
:100BD000A901C701B6010E94490FB12CA12C87FFC2
:100BE00009C06DE286E894E016DC5C01F7FAF09447
:100BF000F7F8F0942AE037ED43EA5BE3C701B6016A
:100C00000E94E50E2B013C010E94B50F6B017C0197
:100C10000E94E10F9B01AC01C301B2010E94E40EEE
:100C20002B013C014AE0C701B60124DF7C01EA0C3C
:100C3000FB1C6EE286E894E0EEDBE80EF91E20E095
:100C400030E040E251E4C301B2010E9497102B0151
:100C50003C010E94B50F4B01B12CA12C4AE0C5010B
:100C6000B40108DFE80EF91EC501B4010E94E10FCE
:100C70009B01AC01C301B2010E94E40E20E030E010
:100C800040E251E40E9497100E94B50F90E080E08E
:100C90004AE0F0DEE80EF91E55CFCF93DF934AE02D
:100CA000E9DEEC0182E292E0D9DE8C0F9D1FDF913C
:100CB000CF9108951F920F920FB60F9211240BB689
:100CC0000F922F933F934F935F936F937F938F93E5
:100CD0009F93AF93BF93EF93FF9389EE93E079DBFC
:100CE000FF91EF91BF91AF919F918F917F916F9104
:100CF0005F914F913F912F910F900BBE0F900FBEC0
:100D00000F901F9018951F920F920FB60F921124FB
:100D10000BB60F922F938F939F93EF93FF93E091D6
:100D2000F903F091FA038081E091FF03F091000450
:100D300082FD1DC09081809102048F5F8F7320918E
:100D40000304821741F0E0910204F0E0E751FC4F08
:100D5000958F80930204FF91EF919F918F912F9136
:100D60000F900BBE0F900FBE0F901F9018958081B3
:100D7000F2CF1F920F920FB60F9211240BB60F9263
:100D80002F933F934F935F936F937F938F939F9393
:100D9000AF93BF93EF93FF9386E894E01ADBFF9144
:100DA000EF91BF91AF919F918F917F916F915F91E3
:100DB0004F913F912F910F900BBE0F900FBE0F9050
:100DC0001F9018951F920F920FB60F9211240BB619
:100DD0000F922F938F939F93EF93FF93E09196043D
:100DE000F09197048081E0919C04F0919D0482FD34
:100DF0001DC0908180919F048F5F8F732091A0040C
:100E0000821741F0E0919F04F0E0EA57FB4F958F85
:100E100080939F04FF91EF919F918F912F910F905D
:100E20000BBE0F900FBE0F901F9018958081F2CFD0
:100E30001F920F920FB60F9211242F933F938F930F
:100E40009F93AF93BF938091E5039091E603A091A8
:100E5000E703B091E80330919F0323E0230F2D3780
:100E600058F50196A11DB11D20939F038093E503C2
:100E70009093E603A093E703B093E80380919B036C
:100E800090919C03A0919D03B0919E030196A11D9A
:100E9000B11D80939B0390939C03A0939D03B093FB
:100EA0009E03BF91AF919F918F913F912F910F9092
:100EB0000FBE0F901F90189526E8230F0296A11DD4
:100EC000B11DD2CF1F920F920FB60F9211240BB605
:100ED0000F922F933F934F935F936F937F938F93D3
:100EE0009F93AF93BF93EF93FF93E0910E02F09126
:100EF0000F021995FF91EF91BF91AF919F918F9143
:100F00007F916F915F914F913F912F910F900BBE09
:100F10000F900FBE0F901F9018951F920F920FB653
:100F20000F9211240BB60F922F933F934F935F9321
:100F30006F937F938F939F93AF93BF93EF93FF93A1
:100F4000E0910C02F0910D021995FF91EF91BF9184
:100F5000AF919F918F917F916F915F914F913F9151
:100F60002F910F900BBE0F900FBE0F901F901895F2
:100F70001F920F920FB60F9211240BB60F922F9360
:100F80003F934F935F936F937F938F939F93AF9311
:100F9000BF93EF93FF93E0910202F0910302199542
:100FA000FF91EF91BF91AF919F918F917F916F9141
:100FB0005F914F913F912F910F900BBE0F900FBEFD
:100FC0000F901F9018951F920F920FB60F92112439
:100FD0000BB60F922F933F934F935F936F937F9333
:100FE0008F939F93AF93BF93EF93FF93E091000292
:100FF000F09101021995FF91EF91BF91AF919F91EF
:101000008F917F916F915F914F913F912F910F90B1
:101010000BBE0F900FBE0F901F9018951F920F924E
:101020000FB60F9211240BB60F922F933F934F934D
:101030005F936F937F938F939F93AF93BF93EF9340
:10104000FF93E0910A02F0910B021995FF91EF9145
:10105000BF91AF919F918F917F916F915F914F91D0
:101060003F912F910F900BBE0F900FBE0F901F90CE
:1010700018951F920F920FB60F9211240BB60F9274
:101080002F933F934F935F936F937F938F939F9390
:10109000AF93BF93EF93FF93E0910802F0910902A1
:1010A0001995FF91EF91BF91AF919F918F917F9192
:1010B0006F915F914F913F912F910F900BBE0F90C9
:1010C0000FBE0F901F9018951F920F920FB60F92A0
:1010D00011240BB60F922F933F934F935F936F930F
:1010E0007F938F939F93AF93BF93EF93FF93E09181
:1010F0000602F09107021995FF91EF91BF91AF9110
:101100009F918F917F916F915F914F913F912F911F
:101110000F900BBE0F900FBE0F901F9018951F924F
:101120000F920FB60F9211240BB60F922F933F938D
:101130004F935F936F937F938F939F93AF93BF93DF
:10114000EF93FF93E0910402F09105021995FF914E
:10115000EF91BF91AF919F918F917F916F915F912F
:101160004F913F912F910F900BBE0F900FBE0F909C
:101170001F9018951F920F920FB60F9211240BB665
:101180000F922F933F934F935F936F937F938F9320
:101190009F93AF93BF93EF93FF938091B900887FA4
:1011A000803609F44CC008F03FC0883209F4A6C06C
:1011B00028F5803109F49AC0C8F4882309F4F6C0F0
:1011C000883009F493C0FF91EF91BF91AF919F9147
:1011D0008F917F916F915F914F913F912F910F90E0
:1011E0000BBE0F900FBE0F901F901895883109F419
:1011F00085C0803241F78093740314C0803409F4B1
:101200009AC040F48033B9F38833E9F680937403CD
:1012100085ECADC0803509F482C0883509F493C0EF
:10122000883489F636DBCFCF883909F48AC038F59F
:10123000883729F050F4883611F0803721F683E0A2
:10124000809375031092730355C0883809F479C0F0
:10125000803919F0803809F0B6CF8091730380325D
:1012600008F06FC0E091730381E08E0F80937303E9
:101270008091BB00F0E0ED5AFC4F80833BC0803B87
:1012800039F0D0F4803A09F477C0883A09F09BCF5E
:1012900084E0809375031092520310925103F0E0A2
:1012A000E0E019958091510381110FC081E0809396
:1012B00051031092310309C0803C09F4A9CF883C46
:1012C00009F4A6CF883B09F07ECFE091520381E07C
:1012D0008E0F80935203F0E0EF5CFC4F808180938F
:1012E000BB00909152038091510329C080919A03D1
:1012F0008093BB0085EC8093BC0065CF90919903EF
:1013000080919803981758F5E091990381E08E0F2A
:1013100080939903F0E0E858FC4F8081E9CFE09199
:10132000990381E08E0F809399038091BB00F0E0D8
:10133000E858FC4F80839091990380919803981707
:10134000C8F285E8D8CFE091990381E08E0F8093B1
:1013500099038091BB00F0E0E858FC4F80838091B6
:10136000770381115FCF81E08093760384EA8093D5
:10137000BC001092750327CF85EC8093BC001092BF
:10138000750380917303803230F4E0917303F0E0D1
:10139000ED5AFC4F10826091730370E083E593E097
:1013A000F0E0E0E01995109273030DCF10927403F2
:1013B00039CF2FB7F8944091E5035091E60360913F
:1013C000E7037091E8032FBFFC01408351836283E0
:1013D00073830895E9EEF3E01382128248EE53E03E
:1013E00060E070E0448355836683778384E192E014
:1013F000918380832DEC30E0358724872CEC30E01E
:101400003787268728EC30E0318B208B29EC30E0C1
:10141000338B228B2AEC30E0358B248B2EEC30E0A2
:10142000378B268B118E128E138E148EE6E8F4E025
:1014300013821282448355836683778391838083EA
:1014400085EC90E09587848784EC90E09787868789
:1014500080EC90E0918B808B81EC90E0938B828B81
:1014600082EC90E0958B848B86EC90E0978B868B5A
:10147000118E128E138E148E8FE495E09ADF8BE41A
:1014800095E097DF87E495E094DF83E495E091DFD2
:101490008FE395E08EDF8BE395E08BDF87E395E0CC
:1014A00088DF83E395E085DF8FE295E082DF8BE2E2
:1014B00095E07FDF87E295E07CDF83E295E079CFFE
:1014C000789484B5826084BD84B5816084BD85B51F
:1014D000826085BD85B5816085BD80916E0081602B
:1014E00080936E00109281008091810082608093D1
:1014F00081008091810081608093810080918000D3
:101500008160809380008091B10084608093B100FD
:101510008091B00081608093B000809191008260E2
:1015200080939100809191008160809391008091DF
:1015300090008160809390008091A10082608093F0
:10154000A1008091A10081608093A1008091A00002
:1015500081608093A00080912101826080932101AD
:10156000809121018160809321018091200181601F
:101570008093200180917A00846080937A0080912A
:101580007A00826080937A0080917A0081608093F3
:101590007A0080917A00806880937A001092C1006E
:1015A00086E894E00E94350181E392E0A6DA89EEB4
:1015B00093E00E94350160E089E07FD860E087E039
:1015C0007CD860E088E079D860E086E076D860E09A
:1015D00089E173D860E087E170D860E088E16DD878
:1015E00060E08AE06AD861E085E167D826EB33E005
:1015F0004EEB53E066EC73E08EEC93E0A9D8F894E0
:1016000081E08093E403789480E090E0A0EAB0E485
:101610008093CE039093CF03A093D003B093D103D4
:1016200080E090E0A0E2B1E48093C6039093C7030A
:10163000A093C803B093C90380E090E0A0E8B0E4B1
:101640008093BE039093BF03A093C003B093C103E4
:1016500080E090E0A8ECB2E48093B6039093B703E7
:10166000A093B803B093B903F8948091E403811177
:101670000BC0789426EB33E04EEB53E066EC73E05E
:101680008EEC93E065D8F0CF1092E403789482E476
:1016900092E033DA82E090E09093D3038093D20318
:1016A000C2E0D0E085E0282E312C03E010E0882451
:1016B0008394912C24E0A22EB12CF8948091E40321
:1016C000882309F4B0C0789424ED33E048ED53E06A
:1016D0006CED73E080EE93E03BD8E090D203F090A5
:1016E000D30382E0E816F10409F0A4C08FE492E08D
:1016F00004DAF8948091CE039091CF03A091D003A7
:10170000B091D1038093CA039093CB03A093CC03F1
:10171000B093CD038091C6039091C703A091C803F5
:10172000B091C9038093C2039093C303A093C403F1
:10173000B093C5038091BE039091BF03A091C003F5
:10174000B091C1038093BA039093BB03A093BC03F1
:10175000B093BD038091B6039091B703A091B803F5
:10176000B091B90378942091C2033091C3034091A2
:10177000C4035091C50360E070E080E792E48DD32C
:101780006B017C0120E030E040E85FE36091BA0348
:101790007091BB038091BC039091BD0316D39B0154
:1017A000AC01C701B60179D39B01AC012093B20310
:1017B0003093B3034093B4035093B503C701B6010C
:1017C00003D36093AE037093AF038093B003909301
:1017D000B10384E10E940803019739F51093D30304
:1017E0000093D2038091A603882309F4E8C283E41E
:1017F00095E0BFD8E6D320E030E04AEF53E493D43D
:10180000181674F483E495E00E945C0185E10E945F
:10181000080361E0892B09F060E085E10E94300354
:101820000E9476024ACF789458CFB092D303A09208
:10183000D203D8CF93E0E916F10409F07EC180917C
:10184000AC039091AD03892B59F481E692E055D910
:1018500087E495E00E945C019092AD038092AC0316
:101860008091AC039091AD038130910509F049C09E
:1018700089E692E04ED987E495E07BD80EDA65D808
:101880006B017C01C092A803D092A903E092AA0345
:10189000F092AB0387E495E06CD893D320E030E07E
:1018A0004AEF53E440D41816D4F4D093AD03C09358
:1018B000AC038091A6039091A70380649093A70343
:1018C0008093A60387E495E00E945C011092A20336
:1018D0001092A3031092A4031092A50383CF20912A
:1018E000CA033091CB034091CC035091CD03C70183
:1018F000B601CFD287FF76CFD093AD03C093AC03B0
:10190000E1CF8230910541F488E792E002D910934B
:10191000AD030093AC0366CF8330910509F056C048
:101920008AE892E0F6D887E495E023D8B6D985E92D
:1019300092E0EFD86091B2037091B3038091B40349
:101940009091B503E7D801D86B017C01C092A80340
:10195000D092A903E092AA03F092AB032091A203D4
:101960003091A3034091A4035091A503DCD3181632
:1019700044F4C092A203D092A303E092A403F09295
:10198000A50387E495E00E94B9041BD32B013C0119
:1019900020E030E04AE754E46091B2037091B30371
:1019A0008091B4039091B503C2D39B01AC01C301F4
:1019B000B201B9D318160CF041C187E495E00E943A
:1019C0005C01B092AD03A092AC030CCF84309105C2
:1019D00091F58BEA92E09DD887E495E00E94B904E6
:1019E0005CD984EB92E095D860E070E080E89EE3FB
:1019F00091D80E94A5046B017C01C092A803D092EB
:101A0000A903E092AA03F092AB0387E495E00E9459
:101A1000B904D7D220E030E04AE753E484D3181663
:101A20000CF00CC13092AD032092AC0387E495E03A
:101A30000E945C01D7CE8530910509F041C088EC49
:101A400092E067D887E495E00E94B90426D983ED37
:101A500092E05FD86091AE037091AF038091B003C4
:101A60009091B10357D80E94A5046093A803709386
:101A7000A9038093AA039093AB0387E495E00E94A7
:101A8000B9049FD26B017C0120E030E04AE754E4C6
:101A90006091AE037091AF038091B0039091B10358
:101AA00046D39B01AC01C701B6013DD318160CF01B
:101AB00099CE86E090E09093AD038093AC0392CEF4
:101AC000069709F08FCE89EE92E023D80E94A504F4
:101AD0006B017C01C092A803D092A903E092AA03F3
:101AE000F092AB0320E030E040EA51E41CD318163A
:101AF000B4F48091A6039091A70384609093A70308
:101B00008093A60387E495E00E945C011092AD03E8
:101B10001092AC03D093D303C093D20363CE20E0E2
:101B200030E0A901C701B601B4D187FFEBCF8091A6
:101B3000A6039091A7038860E1CF94E0E916F10431
:101B400009F050CE8091A0039091A103009769F411
:101B500081EF92E00E94890587E495E00E945C0194
:101B6000D093A103C093A003B1CE8230910549F474
:101B700089EF92E00E9489059092A1038092A003D0
:101B800031CE8130910509F06DC089E093E00E946B
:101B9000890587E495E00E94B9047FD885E992E041
:101BA0000E9489056091B2037091B3038091B403E0
:101BB0009091B5030E948A050E94A5046B017C01E7
:101BC000C092A803D092A903E092AA03F092AB03BB
:101BD0002091A2033091A3034091A4035091A50347
:101BE000A2D2181644F4C092A203D092A303E092AA
:101BF000A403F092A50387E495E00E94B904E1D123
:101C00002B013C0120E030E04AE754E46091B2034C
:101C10007091B3038091B4039091B50388D29B0176
:101C2000AC01C301B2017FD2181644F41093A10392
:101C30000093A00387E495E00E945C0120E030E07F
:101C400040E450E4C701B6016ED218160CF0CACDBC
:101C50008091A6039091A70381609093A70380933E
:101C6000A603C0CD8330910509F03EC084E193E026
:101C70000E94890587E495E00E94B9040ED884EBA0
:101C800092E00E9489056091B2037091B303809144
:101C9000B4039091B5030E948A050E94A5042B010C
:101CA0003C014092A8035092A9036092AA0370924B
:101CB000AB0387E495E00E94B90483D120E030E0D3
:101CC0004AE753E430D2181644F4F092A103E092AC
:101CD000A00387E495E00E945C0120E030E040E44E
:101CE00050E4C301B201B0CF8430910509F057C070
:101CF0008DE193E00E94890587E495E00E94B90494
:101D00000E944D0683ED92E00E9489056091AE032A
:101D10007091AF038091B0039091B1030E948A0546
:101D20000E94A5042B013C014092A8035092A903F4
:101D30006092AA037092AB0387E495E00E94B90415
:101D400040D12091AE033091AF034091B003509148
:101D5000B103E9D1181624F43092A1032092A00314
:101D6000E090A603F090A70320E030E040EA51E4C1
:101D7000C301B201D8D118163CF46894E2F8F0928D
:101D8000A703E092A6032ECD20E030E0A901C30115
:101D9000B2017FD087FF26CD6894E3F8F0CF059796
:101DA00009F020CD88E293E00E948905D093D30307
:101DB000C093D2031092A1031092A00313CD83E429
:101DC00095E00E945C0128CD5058BB27AA270ED071
:101DD00070C161D130F066D120F031F49F3F11F431
:101DE0001EF456C10EF4E095E7FB4CC1E92F72D109
:101DF00080F3BA17620773078407950718F071F428
:101E00009EF58AC10EF4E0950B2EBA2FA02D0B0182
:101E1000B90190010C01CA01A0011124FF27591B2F
:101E200099F0593F50F4503E68F11A16F040A22F35
:101E3000232F342F4427585FF3CF469537952795A6
:101E4000A795F0405395C9F77EF41F16BA0B620BA5
:101E5000730B840BBAF09150A1F0FF0FBB1F661FEC
:101E6000771F881FC2F70EC0BA0F621F731F841F2F
:101E700048F4879577956795B795F7959E3F08F055
:101E8000B3CF9395880F08F09927EE0F9795879514
:101E90000895D4D008F481E008950CD00AC102D18D
:101EA00040F0F9D030F021F45F3F19F0EBC0511150
:101EB00034C1EEC00FD198F39923C9F35523B1F380
:101EC000951B550BBB27AA2762177307840738F0A9
:101ED0009F5F5F4F220F331F441FAA1FA9F333D008
:101EE0000E2E3AF0E0E830D091505040E695001CBC
:101EF000CAF729D0FE2F27D0660F771F881FBB1F78
:101F0000261737074807AB07B0E809F0BB0B802D51
:101F1000BF01FF2793585F4F2AF09E3F510568F09D
:101F2000B1C0FBC05F3FECF3983EDCF3869577953C
:101F30006795B795F7959F5FC9F7880F911D96959F
:101F4000879597F90895E1E0660F771F881FBB1FFB
:101F5000621773078407BA0720F0621B730B840BA8
:101F6000BA0BEE1F88F7E0950895BCD088F09F5714
:101F700090F0B92F9927B751A0F0D1F0660F771FD5
:101F8000881F991F1AF0BA95C9F712C0B13081F0B5
:101F9000C3D0B1E00895C0C0672F782F8827B85FFD
:101FA00039F0B93FCCF3869577956795B395D9F716
:101FB0003EF490958095709561957F4F8F4F9F4F20
:101FC0000895E89409C097FB3EF49095809570952C
:101FD00061957F4F8F4F9F4F9923A9F0F92F96E975
:101FE000BB279395F695879577956795B795F111EA
:101FF000F8CFFAF4BB0F11F460FF1BC06F5F7F4F87
:102000008F4F9F4F16C0882311F096E911C0772398
:1020100021F09EE8872F762F05C0662371F096E8A1
:10202000862F70E060E02AF09A95660F771F881F70
:10203000DAF7880F9695879597F90895990F000814
:10204000550FAA0BE0E8FEEF16161706E807F9078A
:10205000C0F012161306E407F50798F0621B730B25
:10206000840B950B39F40A2661F0232B242B252BA6
:1020700021F408950A2609F4A140A6958FEF811D49
:10208000811D089597F99F6780E870E060E00895EA
:102090009FEF80EC089500240A9416161706180680
:1020A0000906089500240A9412161306140605065C
:1020B0000895092E0394000C11F4882352F0BB0FED
:1020C00040F4BF2B11F460FF04C06F5F7F4F8F4F50
:1020D0009F4F089557FD9058440F551F59F05F3F8B
:1020E00071F04795880F97FB991F61F09F3F79F03A
:1020F00087950895121613061406551FF2CF4695BC
:10210000F1DF08C0161617061806991FF1CF86953D
:102110007105610508940895E894BB276627772721
:10212000CB0197F908958ADF08F48FEF08950BD05B
:10213000C0CFB1DF28F0B6DF18F0952309F0A2CFA9
:10214000A7CF1124EACFC6DFA0F3959FD1F3950F57
:1021500050E0551F629FF001729FBB27F00DB11D2B
:10216000639FAA27F00DB11DAA1F649F6627B00DBB
:10217000A11D661F829F2227B00DA11D621F739FA4
:10218000B00DA11D621F839FA00D611D221F749FB2
:102190003327A00D611D231F849F600D211D822FF9
:1021A000762F6A2F11249F5750408AF0E1F0882340
:1021B0004AF0EE0FFF1FBB1F661F771F881F91504D
:1021C0005040A9F79E3F510570F05CCFA6CF5F3F0E
:1021D000ECF3983EDCF3869577956795B795F79580
:1021E000E7959F5FC1F7FE2B880F911D9695879508
:1021F00097F9089523DF880B990B0895A1E21A2E11
:10220000AA1BBB1BFD010DC0AA1FBB1FEE1FFF1F9A
:10221000A217B307E407F50720F0A21BB30BE40BEA
:10222000F50B661F771F881F991F1A9469F7609531
:102230007095809590959B01AC01BD01CF010895EB
:10224000EE0FFF1F881F8BBF0790F691E02D1994AA
:04225000F894FFCF30
:10225400480448044804480448044804480448041A
:10226400000000000B026D019A015702CB01A90185
:10227400BD010D0A006E616E00696E66006F7666C0
:102284000053746172745570496E69746961746540
:102294006400486F6D696E67204D6F746F72004201
:1022A4007265617468204C6F6F702053746172742E
:1022B4000041435374617274004143496E68616C18
:1022C40065576169743A20004143496E68616C65E1
:1022D400436F6D6D616E643A20004143496E6861DD
:1022E4006C653A20004465736972656420496E68C0
:1022F400616C652054696D653A2000414350656105
:102304006B3A200044657369726564205065616BA3
:102314002054696D653A20004143457868616C65D5
:102324003A20004465736972656420457868616C7D
:10233400652054696D653A200041435265736574A4
:102344000056435374617274005643496E68616C5D
:1023540065436F6D6D616E64005643496E68616CD0
:10236400653A200056435065616B3A200056434558
:102374007868616C653A2000564352657365740051
:00000001FF
